:0F00CA000A08C0F9A4B0999282F880900112FF41
:10008F007580FED2A2C2A2E4FFFE74082FF8E6F537
:10009F0080D2A3C2A3851280D2A3C2A30FBF000137
:0900AF000EEF640A4E70E380FEBE
:1000B800E4FDFCC3ED9FEC9E50070DBD00010C80D4
:0100C800F245
:0100C9002214
:03000000020003F8
:0C000300787FE4F6D8FD75811202004AF7
:10000F0002008FE493A3F8E493A34003F68001F278
:10001F0008DFF48029E493A3F85407240CC8C333F2
:10002F00C4540F4420C8834004F456800146F6DFC1
:10003F00E4800B01020408102040809000CAE47E87
:10004F00019360BCA3FF543F30E509541FFEE493B6
:10005F00A360010ECF54C025E060A840B8E493A37D
:10006F00FAE493A3F8E493A3C8C582C8CAC583CAA8
:10007F00F0A3C8C582C8CAC583CADFE9DEE780BE60
:0100D9000026
:00000001FF
