:03000000020003F8
:0C000300787FE4F6D8FD75811402004AF5
:0F00DC000A08C0F9A4B0999282F880900112002E
:10008F007580FED2A2C2A2E4F513F51474082514EC
:10009F00F8E6F4F5801200C28512801200C2051432
:1000AF00E51470020513C3940AE51364809480402D
:0300BF00DB80D40F
:0800C200D2A3C2A37F307E75BA
:1000CA00E4FDFCC3ED9FEC9E50070DBD00010C80C2
:0100DA00F233
:0100DB002202
:10000F0002008FE493A3F8E493A34003F68001F278
:10001F0008DFF48029E493A3F85407240CC8C333F2
:10002F00C4540F4420C8834004F456800146F6DFC1
:10003F00E4800B01020408102040809000DCE47E75
:10004F00019360BCA3FF543F30E509541FFEE493B6
:10005F00A360010ECF54C025E060A840B8E493A37D
:10006F00FAE493A3F8E493A3C8C582C8CAC583CAA8
:10007F00F0A3C8C582C8CAC583CADFE9DEE780BE60
:0100EB000014
:00000001FF
