:0300000002000EED
:0C000E00787FE4F6D8FD758127020055CC
:1001E3000A10C0F9A4B0999282F88090011C00080B
:0901F3001DFEFDFBF7EFDFBF7FED
:0E020F00751A00751B3812021D12017180FB5A
:0A021D00438901D2AFD2A9D28C228E
:03000B000201A34C
:1001A300C0E0C0F0C083C082C0D075D008758CD8C1
:1001B300758AF0AF1BAE1A120125D0D0D082D0833E
:0501C300D0F0D0E03295
:1001C800C374079F241DF8E6F580D2A2C2A274105A
:0B01D8002DF8E6F4F580D2A3C2A322AC
:100125008E258F26E4F527C3E526940AE525648008
:100135009480500EAD26AF271201C87FC87E0002FD
:1001450001FDAE25AF267C007D0A12009AAF27126D
:1001550001C8AE25AF267C007D0A12009A8E258F38
:0C0165002605277FC87E001201FD80BB2C
:1001FD00E4FDFCC3ED9FEC9E50070DBD00010C808E
:01020D00F2FE
:01020E0022CD
:100171002090167F147E001201FD20900C3090FD1E
:10018100051BE51B701B051A222091157F147E00AB
:100191001201FD20910B3091FDE51B151B7002151D
:0201A1001A2220
:10001A0002020FE493A3F8E493A34003F68001F2EB
:10002A0008DFF48029E493A3F85407240CC8C333E7
:10003A00C4540F4420C8834004F456800146F6DFB6
:10004A00E4800B01020408102040809001E3E47E62
:10005A00019360BCA3FF543F30E509541FFEE493AB
:10006A00A360010ECF54C025E060A840B8E493A372
:10007A00FAE493A3F8E493A3C8C582C8CAC583CA9D
:10008A00F0A3C8C582C8CAC583CADFE9DEE780BE55
:0101FC000002
:10009A00C2D5EC30E709B2D5E4C39DFDE49CFCEE81
:1000AA0030E715B2D5E4C39FFFE49EFE1200D0C329
:1000BA00E49DFDE49CFC80031200D030D507C3E424
:0600CA009FFFE49EFE22F0
:1000D000BC000BBE0029EF8DF084FFADF022E4CC14
:1000E000F875F008EF2FFFEE33FEEC33FCEE9DECDD
:1000F000984005FCEE9DFE0FD5F0E9E4CEFD22ED23
:10010000F8F5F0EE8420D21CFEADF075F008EF2F6C
:10011000FFED33FD4007985006D5F0F222C398FD5D
:050120000FD5F0EA22FA
:00000001FF
